{
  "_format": "hh-sol-artifact-1",
  "contractName": "MercadoSimples",
  "sourceName": "contracts/MercadoSimples.sol",
  "abi": [
    {
      "inputs": [
        {
          "internalType": "address",
          "name": "primeiroJuiz",
          "type": "address"
        },
        {
          "internalType": "address",
          "name": "tokenAddress",
          "type": "address"
        }
      ],
      "stateMutability": "nonpayable",
      "type": "constructor"
    },
    {
      "anonymous": false,
      "inputs": [
        {
          "indexed": true,
          "internalType": "uint256",
          "name": "",
          "type": "uint256"
        },
        {
          "indexed": false,
          "internalType": "string",
          "name": "titulo",
          "type": "string"
        },
        {
          "indexed": false,
          "internalType": "string",
          "name": "conteudo",
          "type": "string"
        }
      ],
      "name": "NovaPrevisaoEvent",
      "type": "event"
    },
    {
      "anonymous": false,
      "inputs": [
        {
          "indexed": false,
          "internalType": "uint256",
          "name": "idDaVotacao",
          "type": "uint256"
        },
        {
          "indexed": false,
          "internalType": "address",
          "name": "votante",
          "type": "address"
        },
        {
          "indexed": false,
          "internalType": "int256",
          "name": "voto",
          "type": "int256"
        }
      ],
      "name": "NovoVoto",
      "type": "event"
    },
    {
      "anonymous": false,
      "inputs": [
        {
          "indexed": true,
          "internalType": "uint256",
          "name": "",
          "type": "uint256"
        },
        {
          "indexed": false,
          "internalType": "string",
          "name": "resultado",
          "type": "string"
        }
      ],
      "name": "PrevisaoEncerradaEvent",
      "type": "event"
    },
    {
      "inputs": [
        {
          "internalType": "int256",
          "name": "x",
          "type": "int256"
        }
      ],
      "name": "abs",
      "outputs": [
        {
          "internalType": "uint256",
          "name": "",
          "type": "uint256"
        }
      ],
      "stateMutability": "pure",
      "type": "function"
    },
    {
      "inputs": [
        {
          "internalType": "address",
          "name": "novoJuiz",
          "type": "address"
        }
      ],
      "name": "addJuiz",
      "outputs": [],
      "stateMutability": "nonpayable",
      "type": "function"
    },
    {
      "inputs": [
        {
          "internalType": "string",
          "name": "_titulo",
          "type": "string"
        },
        {
          "internalType": "string",
          "name": "_texto",
          "type": "string"
        }
      ],
      "name": "addPrevisao",
      "outputs": [],
      "stateMutability": "nonpayable",
      "type": "function"
    },
    {
      "inputs": [
        {
          "internalType": "uint256",
          "name": "idDaPrevisao",
          "type": "uint256"
        },
        {
          "internalType": "string",
          "name": "resultado",
          "type": "string"
        }
      ],
      "name": "encerraPrevisao",
      "outputs": [],
      "stateMutability": "nonpayable",
      "type": "function"
    },
    {
      "inputs": [],
      "name": "getJuizes",
      "outputs": [
        {
          "internalType": "address[]",
          "name": "",
          "type": "address[]"
        }
      ],
      "stateMutability": "view",
      "type": "function"
    },
    {
      "inputs": [],
      "name": "getNumeroDePrevisoes",
      "outputs": [
        {
          "internalType": "uint256",
          "name": "",
          "type": "uint256"
        }
      ],
      "stateMutability": "view",
      "type": "function"
    },
    {
      "inputs": [
        {
          "internalType": "uint256",
          "name": "idDaPrevisao",
          "type": "uint256"
        }
      ],
      "name": "getPrevisao",
      "outputs": [
        {
          "internalType": "string",
          "name": "titulo",
          "type": "string"
        },
        {
          "internalType": "string",
          "name": "texto",
          "type": "string"
        },
        {
          "internalType": "uint256",
          "name": "votosSim",
          "type": "uint256"
        },
        {
          "internalType": "uint256",
          "name": "votosNao",
          "type": "uint256"
        },
        {
          "internalType": "bool",
          "name": "status",
          "type": "bool"
        },
        {
          "internalType": "int256",
          "name": "totalSim",
          "type": "int256"
        },
        {
          "internalType": "int256",
          "name": "totalNao",
          "type": "int256"
        }
      ],
      "stateMutability": "view",
      "type": "function"
    },
    {
      "inputs": [
        {
          "internalType": "uint256",
          "name": "idDaPrevisao",
          "type": "uint256"
        }
      ],
      "name": "getVotantes",
      "outputs": [
        {
          "internalType": "address[]",
          "name": "",
          "type": "address[]"
        }
      ],
      "stateMutability": "view",
      "type": "function"
    },
    {
      "inputs": [
        {
          "internalType": "uint256",
          "name": "idDaPrevisao",
          "type": "uint256"
        },
        {
          "internalType": "address",
          "name": "votante",
          "type": "address"
        }
      ],
      "name": "getVoto",
      "outputs": [
        {
          "internalType": "int256",
          "name": "voto",
          "type": "int256"
        }
      ],
      "stateMutability": "view",
      "type": "function"
    },
    {
      "inputs": [
        {
          "internalType": "uint256",
          "name": "idDaPrevisao",
          "type": "uint256"
        },
        {
          "internalType": "uint256",
          "name": "amount",
          "type": "uint256"
        },
        {
          "internalType": "address",
          "name": "recipient",
          "type": "address"
        }
      ],
      "name": "pagaVotantes",
      "outputs": [],
      "stateMutability": "nonpayable",
      "type": "function"
    },
    {
      "inputs": [],
      "name": "token",
      "outputs": [
        {
          "internalType": "contract IERC20",
          "name": "",
          "type": "address"
        }
      ],
      "stateMutability": "view",
      "type": "function"
    },
    {
      "inputs": [
        {
          "internalType": "uint256",
          "name": "idDaPrevisao",
          "type": "uint256"
        },
        {
          "internalType": "int256",
          "name": "valorDoVoto",
          "type": "int256"
        }
      ],
      "name": "votar",
      "outputs": [],
      "stateMutability": "nonpayable",
      "type": "function"
    }
  ],
  "bytecode": "0x608060405234801561001057600080fd5b50604051612b88380380612b888339818101604052810190610032919061019f565b6001600260008473ffffffffffffffffffffffffffffffffffffffff1673ffffffffffffffffffffffffffffffffffffffff16815260200190815260200160002060006101000a81548160ff0219169083151502179055506003829080600181540180825580915050600190039060005260206000200160009091909190916101000a81548173ffffffffffffffffffffffffffffffffffffffff021916908373ffffffffffffffffffffffffffffffffffffffff1602179055506000808190555080600560006101000a81548173ffffffffffffffffffffffffffffffffffffffff021916908373ffffffffffffffffffffffffffffffffffffffff16021790555050506101df565b600080fd5b600073ffffffffffffffffffffffffffffffffffffffff82169050919050565b600061016c82610141565b9050919050565b61017c81610161565b811461018757600080fd5b50565b60008151905061019981610173565b92915050565b600080604083850312156101b6576101b561013c565b5b60006101c48582860161018a565b92505060206101d58582860161018a565b9150509250929050565b61299a806101ee6000396000f3fe608060405234801561001057600080fd5b50600436106100b45760003560e01c8063ada4f85d11610071578063ada4f85d146101a7578063b9ad997b146101c3578063d8dcee13146101df578063e5948f54146101fb578063f2eaa2321461022b578063fc0c546a14610247576100b4565b80630aa31019146100b95780631b5ac4b5146100ef578063256a59641461011f578063334c14c11461013d57806383206d0f1461015b5780639c149a7c1461018b575b600080fd5b6100d360048036038101906100ce9190611501565b610265565b6040516100e69796959493929190611601565b60405180910390f35b610109600480360381019061010491906116aa565b61044d565b60405161011691906116d7565b60405180910390f35b610127610471565b60405161013491906117e2565b60405180910390f35b6101456104ff565b60405161015291906116d7565b60405180910390f35b61017560048036038101906101709190611830565b610508565b6040516101829190611870565b60405180910390f35b6101a560048036038101906101a0919061188b565b61063a565b005b6101c160048036038101906101bc919061191d565b610784565b005b6101dd60048036038101906101d89190611ace565b6109b6565b005b6101f960048036038101906101f49190611b2a565b610aad565b005b61021560048036038101906102109190611501565b610e80565b60405161022291906117e2565b60405180910390f35b61024560048036038101906102409190611b7d565b610f69565b005b61024f6113ea565b60405161025c9190611c1c565b60405180910390f35b606080600080600080600060016000898152602001908152602001600020600101600160008a8152602001908152602001600020600201600160008b815260200190815260200160002060030154600160008c815260200190815260200160002060040154600160008d815260200190815260200160002060060160009054906101000a900460ff16600160008e815260200190815260200160002060070154600160008f81526020019081526020016000206008015486805461032890611c66565b80601f016020809104026020016040519081016040528092919081815260200182805461035490611c66565b80156103a15780601f10610376576101008083540402835291602001916103a1565b820191906000526020600020905b81548152906001019060200180831161038457829003601f168201915b505050505096508580546103b490611c66565b80601f01602080910402602001604051908101604052809291908181526020018280546103e090611c66565b801561042d5780601f106104025761010080835404028352916020019161042d565b820191906000526020600020905b81548152906001019060200180831161041057829003601f168201915b505050505095509650965096509650965096509650919395979092949650565b600080821215610468578161046190611cc6565b905061046c565b8190505b919050565b606060038054806020026020016040519081016040528092919081815260200182805480156104f557602002820191906000526020600020905b8160009054906101000a900473ffffffffffffffffffffffffffffffffffffffff1673ffffffffffffffffffffffffffffffffffffffff16815260200190600101908083116104ab575b5050505050905090565b60008054905090565b6000805483111561054e576040517f08c379a000000000000000000000000000000000000000000000000000000000815260040161054590611d5a565b60405180910390fd5b60006004600085815260200190815260200160002060008473ffffffffffffffffffffffffffffffffffffffff1673ffffffffffffffffffffffffffffffffffffffff16815260200190815260200160002054036105e1576040517f08c379a00000000000000000000000000000000000000000000000000000000081526004016105d890611dec565b60405180910390fd5b6004600084815260200190815260200160002060008373ffffffffffffffffffffffffffffffffffffffff1673ffffffffffffffffffffffffffffffffffffffff16815260200190815260200160002054905092915050565b600260003373ffffffffffffffffffffffffffffffffffffffff1673ffffffffffffffffffffffffffffffffffffffff16815260200190815260200160002060009054906101000a900460ff166106c6576040517f08c379a00000000000000000000000000000000000000000000000000000000081526004016106bd90611e7e565b60405180910390fd5b6001600260008373ffffffffffffffffffffffffffffffffffffffff1673ffffffffffffffffffffffffffffffffffffffff16815260200190815260200160002060006101000a81548160ff0219169083151502179055506003819080600181540180825580915050600190039060005260206000200160009091909190916101000a81548173ffffffffffffffffffffffffffffffffffffffff021916908373ffffffffffffffffffffffffffffffffffffffff16021790555050565b60016000808282546107969190611e9e565b925050819055506000604051806101200160405280600054815260200186868080601f016020809104026020016040519081016040528093929190818152602001838380828437600081840152601f19601f82011690508083019250505050505050815260200184848080601f016020809104026020016040519081016040528093929190818152602001838380828437600081840152601f19601f8201169050808301925050505050505081526020016000815260200160008152602001600067ffffffffffffffff8111156108705761086f6119a3565b5b60405190808252806020026020018201604052801561089e5781602001602082028036833780820191505090505b50815260200160011515815260200160008152602001600081525090508060016000805481526020019081526020016000206000820151816000015560208201518160010190816108ef9190612074565b5060408201518160020190816109059190612074565b50606082015181600301556080820151816004015560a0820151816005019080519060200190610936929190611410565b5060c08201518160060160006101000a81548160ff02191690831515021790555060e0820151816007015561010082015181600801559050506000547f1fc08faf9ed39a8356e28ef849221f7e61166b579b0c08e07aba4189d0775bf5868686866040516109a79493929190612173565b60405180910390a25050505050565b600260003373ffffffffffffffffffffffffffffffffffffffff1673ffffffffffffffffffffffffffffffffffffffff16815260200190815260200160002060009054906101000a900460ff16610a42576040517f08c379a0000000000000000000000000000000000000000000000000000000008152600401610a3990612220565b60405180910390fd5b60006001600084815260200190815260200160002060060160006101000a81548160ff021916908315150217905550817fecf41f88afeca77d0b49dcd85bbd46468c3d35668dfff00cb2d79fa0b88a077382604051610aa19190612240565b60405180910390a25050565b600054831115610af2576040517f08c379a0000000000000000000000000000000000000000000000000000000008152600401610ae990611d5a565b60405180910390fd5b6001600084815260200190815260200160002060060160009054906101000a900460ff1615610b56576040517f08c379a0000000000000000000000000000000000000000000000000000000008152600401610b4d906122ae565b60405180910390fd5b600260003373ffffffffffffffffffffffffffffffffffffffff1673ffffffffffffffffffffffffffffffffffffffff16815260200190815260200160002060009054906101000a900460ff16610be2576040517f08c379a0000000000000000000000000000000000000000000000000000000008152600401610bd990612340565b60405180910390fd5b60006004600085815260200190815260200160002060008373ffffffffffffffffffffffffffffffffffffffff1673ffffffffffffffffffffffffffffffffffffffff1681526020019081526020016000205403610c75576040517f08c379a0000000000000000000000000000000000000000000000000000000008152600401610c6c906123d2565b60405180910390fd5b60008211610cb8576040517f08c379a0000000000000000000000000000000000000000000000000000000008152600401610caf9061243e565b60405180910390fd5b6000600560009054906101000a900473ffffffffffffffffffffffffffffffffffffffff1673ffffffffffffffffffffffffffffffffffffffff166370a08231306040518263ffffffff1660e01b8152600401610d15919061246d565b602060405180830381865afa158015610d32573d6000803e3d6000fd5b505050506040513d601f19601f82011682018060405250810190610d56919061249d565b905082811015610d9b576040517f08c379a0000000000000000000000000000000000000000000000000000000008152600401610d929061253c565b60405180910390fd5b600560009054906101000a900473ffffffffffffffffffffffffffffffffffffffff1673ffffffffffffffffffffffffffffffffffffffff1663a9059cbb83856040518363ffffffff1660e01b8152600401610df892919061255c565b6020604051808303816000875af1158015610e17573d6000803e3d6000fd5b505050506040513d601f19601f82011682018060405250810190610e3b91906125b1565b610e7a576040517f08c379a0000000000000000000000000000000000000000000000000000000008152600401610e719061262a565b60405180910390fd5b50505050565b6060600054821115610ec7576040517f08c379a0000000000000000000000000000000000000000000000000000000008152600401610ebe90611d5a565b60405180910390fd5b60016000838152602001908152602001600020600501805480602002602001604051908101604052809291908181526020018280548015610f5d57602002820191906000526020600020905b8160009054906101000a900473ffffffffffffffffffffffffffffffffffffffff1673ffffffffffffffffffffffffffffffffffffffff1681526020019060010190808311610f13575b50505050509050919050565b6000610f748261044d565b905060006004600085815260200190815260200160002060003373ffffffffffffffffffffffffffffffffffffffff1673ffffffffffffffffffffffffffffffffffffffff1681526020019081526020016000205414611009576040517f08c379a0000000000000000000000000000000000000000000000000000000008152600401611000906126bc565b60405180910390fd5b6000820361104c576040517f08c379a000000000000000000000000000000000000000000000000000000000815260040161104390612728565b60405180910390fd5b6000600560009054906101000a900473ffffffffffffffffffffffffffffffffffffffff1673ffffffffffffffffffffffffffffffffffffffff1663dd62ed3e33306040518363ffffffff1660e01b81526004016110ab929190612748565b602060405180830381865afa1580156110c8573d6000803e3d6000fd5b505050506040513d601f19601f820116820180604052508101906110ec919061249d565b905081811015611131576040517f08c379a0000000000000000000000000000000000000000000000000000000008152600401611128906127e3565b60405180910390fd5b600083131561119957600180600086815260200190815260200160002060030160008282546111609190611e9e565b925050819055508260016000868152602001908152602001600020600701600082825461118d9190612803565b925050819055506111f4565b600180600086815260200190815260200160002060040160008282546111bf9190611e9e565b92505081905550826001600086815260200190815260200160002060080160008282546111ec9190612847565b925050819055505b60016000858152602001908152602001600020600501339080600181540180825580915050600190039060005260206000200160009091909190916101000a81548173ffffffffffffffffffffffffffffffffffffffff021916908373ffffffffffffffffffffffffffffffffffffffff160217905550826004600086815260200190815260200160002060003373ffffffffffffffffffffffffffffffffffffffff1673ffffffffffffffffffffffffffffffffffffffff168152602001908152602001600020819055507fe3e74860dae54d9bd87cdcd485404575fbcdc8c3258ec94549410c73b9f849818433856040516112f39392919061288a565b60405180910390a1600560009054906101000a900473ffffffffffffffffffffffffffffffffffffffff1673ffffffffffffffffffffffffffffffffffffffff166323b872dd33306113448761044d565b6040518463ffffffff1660e01b8152600401611362939291906128c1565b6020604051808303816000875af1158015611381573d6000803e3d6000fd5b505050506040513d601f19601f820116820180604052508101906113a591906125b1565b6113e4576040517f08c379a00000000000000000000000000000000000000000000000000000000081526004016113db90612944565b60405180910390fd5b50505050565b600560009054906101000a900473ffffffffffffffffffffffffffffffffffffffff1681565b828054828255906000526020600020908101928215611489579160200282015b828111156114885782518260006101000a81548173ffffffffffffffffffffffffffffffffffffffff021916908373ffffffffffffffffffffffffffffffffffffffff16021790555091602001919060010190611430565b5b509050611496919061149a565b5090565b5b808211156114b357600081600090555060010161149b565b5090565b6000604051905090565b600080fd5b600080fd5b6000819050919050565b6114de816114cb565b81146114e957600080fd5b50565b6000813590506114fb816114d5565b92915050565b600060208284031215611517576115166114c1565b5b6000611525848285016114ec565b91505092915050565b600081519050919050565b600082825260208201905092915050565b60005b8381101561156857808201518184015260208101905061154d565b60008484015250505050565b6000601f19601f8301169050919050565b60006115908261152e565b61159a8185611539565b93506115aa81856020860161154a565b6115b381611574565b840191505092915050565b6115c7816114cb565b82525050565b60008115159050919050565b6115e2816115cd565b82525050565b6000819050919050565b6115fb816115e8565b82525050565b600060e082019050818103600083015261161b818a611585565b9050818103602083015261162f8189611585565b905061163e60408301886115be565b61164b60608301876115be565b61165860808301866115d9565b61166560a08301856115f2565b61167260c08301846115f2565b98975050505050505050565b611687816115e8565b811461169257600080fd5b50565b6000813590506116a48161167e565b92915050565b6000602082840312156116c0576116bf6114c1565b5b60006116ce84828501611695565b91505092915050565b60006020820190506116ec60008301846115be565b92915050565b600081519050919050565b600082825260208201905092915050565b6000819050602082019050919050565b600073ffffffffffffffffffffffffffffffffffffffff82169050919050565b60006117498261171e565b9050919050565b6117598161173e565b82525050565b600061176b8383611750565b60208301905092915050565b6000602082019050919050565b600061178f826116f2565b61179981856116fd565b93506117a48361170e565b8060005b838110156117d55781516117bc888261175f565b97506117c783611777565b9250506001810190506117a8565b5085935050505092915050565b600060208201905081810360008301526117fc8184611784565b905092915050565b61180d8161173e565b811461181857600080fd5b50565b60008135905061182a81611804565b92915050565b60008060408385031215611847576118466114c1565b5b6000611855858286016114ec565b92505060206118668582860161181b565b9150509250929050565b600060208201905061188560008301846115f2565b92915050565b6000602082840312156118a1576118a06114c1565b5b60006118af8482850161181b565b91505092915050565b600080fd5b600080fd5b600080fd5b60008083601f8401126118dd576118dc6118b8565b5b8235905067ffffffffffffffff8111156118fa576118f96118bd565b5b602083019150836001820283011115611916576119156118c2565b5b9250929050565b60008060008060408587031215611937576119366114c1565b5b600085013567ffffffffffffffff811115611955576119546114c6565b5b611961878288016118c7565b9450945050602085013567ffffffffffffffff811115611984576119836114c6565b5b611990878288016118c7565b925092505092959194509250565b600080fd5b7f4e487b7100000000000000000000000000000000000000000000000000000000600052604160045260246000fd5b6119db82611574565b810181811067ffffffffffffffff821117156119fa576119f96119a3565b5b80604052505050565b6000611a0d6114b7565b9050611a1982826119d2565b919050565b600067ffffffffffffffff821115611a3957611a386119a3565b5b611a4282611574565b9050602081019050919050565b82818337600083830152505050565b6000611a71611a6c84611a1e565b611a03565b905082815260208101848484011115611a8d57611a8c61199e565b5b611a98848285611a4f565b509392505050565b600082601f830112611ab557611ab46118b8565b5b8135611ac5848260208601611a5e565b91505092915050565b60008060408385031215611ae557611ae46114c1565b5b6000611af3858286016114ec565b925050602083013567ffffffffffffffff811115611b1457611b136114c6565b5b611b2085828601611aa0565b9150509250929050565b600080600060608486031215611b4357611b426114c1565b5b6000611b51868287016114ec565b9350506020611b62868287016114ec565b9250506040611b738682870161181b565b9150509250925092565b60008060408385031215611b9457611b936114c1565b5b6000611ba2858286016114ec565b9250506020611bb385828601611695565b9150509250929050565b6000819050919050565b6000611be2611bdd611bd88461171e565b611bbd565b61171e565b9050919050565b6000611bf482611bc7565b9050919050565b6000611c0682611be9565b9050919050565b611c1681611bfb565b82525050565b6000602082019050611c316000830184611c0d565b92915050565b7f4e487b7100000000000000000000000000000000000000000000000000000000600052602260045260246000fd5b60006002820490506001821680611c7e57607f821691505b602082108103611c9157611c90611c37565b5b50919050565b7f4e487b7100000000000000000000000000000000000000000000000000000000600052601160045260246000fd5b6000611cd1826115e8565b91507f80000000000000000000000000000000000000000000000000000000000000008203611d0357611d02611c97565b5b816000039050919050565b7f507265766973616f206e616f2065786973746500000000000000000000000000600082015250565b6000611d44601383611539565b9150611d4f82611d0e565b602082019050919050565b60006020820190508181036000830152611d7381611d37565b9050919050565b7f4f20656c6569746f72206e616f20766f746f75206e657373612070657371756960008201527f7361000000000000000000000000000000000000000000000000000000000000602082015250565b6000611dd6602283611539565b9150611de182611d7a565b604082019050919050565b60006020820190508181036000830152611e0581611dc9565b9050919050565b7f456e64657265636f206e616f206361646173747261646f20636f6d6f206a756960008201527f7a00000000000000000000000000000000000000000000000000000000000000602082015250565b6000611e68602183611539565b9150611e7382611e0c565b604082019050919050565b60006020820190508181036000830152611e9781611e5b565b9050919050565b6000611ea9826114cb565b9150611eb4836114cb565b9250828201905080821115611ecc57611ecb611c97565b5b92915050565b60008190508160005260206000209050919050565b60006020601f8301049050919050565b600082821b905092915050565b600060088302611f347fffffffffffffffffffffffffffffffffffffffffffffffffffffffffffffffff82611ef7565b611f3e8683611ef7565b95508019841693508086168417925050509392505050565b6000611f71611f6c611f67846114cb565b611bbd565b6114cb565b9050919050565b6000819050919050565b611f8b83611f56565b611f9f611f9782611f78565b848454611f04565b825550505050565b600090565b611fb4611fa7565b611fbf818484611f82565b505050565b5b81811015611fe357611fd8600082611fac565b600181019050611fc5565b5050565b601f82111561202857611ff981611ed2565b61200284611ee7565b81016020851015612011578190505b61202561201d85611ee7565b830182611fc4565b50505b505050565b600082821c905092915050565b600061204b6000198460080261202d565b1980831691505092915050565b6000612064838361203a565b9150826002028217905092915050565b61207d8261152e565b67ffffffffffffffff811115612096576120956119a3565b5b6120a08254611c66565b6120ab828285611fe7565b600060209050601f8311600181146120de57600084156120cc578287015190505b6120d68582612058565b86555061213e565b601f1984166120ec86611ed2565b60005b82811015612114578489015182556001820191506020850194506020810190506120ef565b86831015612131578489015161212d601f89168261203a565b8355505b6001600288020188555050505b505050505050565b60006121528385611539565b935061215f838584611a4f565b61216883611574565b840190509392505050565b6000604082019050818103600083015261218e818688612146565b905081810360208301526121a3818486612146565b905095945050505050565b7f536f6d656e7465206a75697a657320706f64656d20656e63657272617220766f60008201527f7461636f65730000000000000000000000000000000000000000000000000000602082015250565b600061220a602683611539565b9150612215826121ae565b604082019050919050565b60006020820190508181036000830152612239816121fd565b9050919050565b6000602082019050818103600083015261225a8184611585565b905092915050565b7f566f746163616f2074656d2071756520657374617220656e6365727261646100600082015250565b6000612298601f83611539565b91506122a382612262565b602082019050919050565b600060208201905081810360008301526122c78161228b565b9050919050565b7f536f6d656e7465206a75697a657320706f64656d207265616c697a617220706160008201527f67616d656e746f73000000000000000000000000000000000000000000000000602082015250565b600061232a602883611539565b9150612335826122ce565b604082019050919050565b600060208201905081810360008301526123598161231d565b9050919050565b7f4f20726563697069656e7465206e616f20766f746f75206e657373612070657360008201527f7175697361000000000000000000000000000000000000000000000000000000602082015250565b60006123bc602583611539565b91506123c782612360565b604082019050919050565b600060208201905081810360008301526123eb816123af565b9050919050565b7f5175616e746961206465766520736572206d61696f7220717565207a65726f00600082015250565b6000612428601f83611539565b9150612433826123f2565b602082019050919050565b600060208201905081810360008301526124578161241b565b9050919050565b6124678161173e565b82525050565b6000602082019050612482600083018461245e565b92915050565b600081519050612497816114d5565b92915050565b6000602082840312156124b3576124b26114c1565b5b60006124c184828501612488565b91505092915050565b7f53616c646f20646f20636f6e747261746f20696e737566696369656e7465207060008201527f617261207472616e73666572656e636961000000000000000000000000000000602082015250565b6000612526603183611539565b9150612531826124ca565b604082019050919050565b6000602082019050818103600083015261255581612519565b9050919050565b6000604082019050612571600083018561245e565b61257e60208301846115be565b9392505050565b61258e816115cd565b811461259957600080fd5b50565b6000815190506125ab81612585565b92915050565b6000602082840312156125c7576125c66114c1565b5b60006125d58482850161259c565b91505092915050565b7f5472616e73666572656e63696120646520746f6b656e2066616c686f75000000600082015250565b6000612614601d83611539565b915061261f826125de565b602082019050919050565b6000602082019050818103600083015261264381612607565b9050919050565b7f4f20656c6569746f72206a6120766f746f75206e65737361207065737175697360008201527f6100000000000000000000000000000000000000000000000000000000000000602082015250565b60006126a6602183611539565b91506126b18261264a565b604082019050919050565b600060208201905081810360008301526126d581612699565b9050919050565b7f566f746f206e616f20706f646520736572207a65726f00000000000000000000600082015250565b6000612712601683611539565b915061271d826126dc565b602082019050919050565b6000602082019050818103600083015261274181612705565b9050919050565b600060408201905061275d600083018561245e565b61276a602083018461245e565b9392505050565b7f50726563697361206170726f7661722061207472616e73666572656e6369612060008201527f616e746573206465206368616d617220612066756e63616f0000000000000000602082015250565b60006127cd603883611539565b91506127d882612771565b604082019050919050565b600060208201905081810360008301526127fc816127c0565b9050919050565b600061280e826115e8565b9150612819836115e8565b92508282019050828112156000831216838212600084121516171561284157612840611c97565b5b92915050565b6000612852826115e8565b915061285d836115e8565b925082820390508181126000841216828213600085121516171561288457612883611c97565b5b92915050565b600060608201905061289f60008301866115be565b6128ac602083018561245e565b6128b960408301846115f2565b949350505050565b60006060820190506128d6600083018661245e565b6128e3602083018561245e565b6128f060408301846115be565b949350505050565b7f5472616e73666572656e63696120646520746f6b656e732066616c686f750000600082015250565b600061292e601e83611539565b9150612939826128f8565b602082019050919050565b6000602082019050818103600083015261295d81612921565b905091905056fea26469706673582212205d94030465aff5108d8b8f93fd935bace0d882f9027f09e098502641020fc20564736f6c634300081c0033",
  "linkReferences": {},
  "deployedLinkReferences": {}
}